{
  "_format": "hh-sol-artifact-1",
  "contractName": "NFTMarket",
  "sourceName": "contracts/NFTMarket.sol",
  "abi": [
    {
      "inputs": [],
      "stateMutability": "nonpayable",
      "type": "constructor"
    },
    {
      "inputs": [
        {
          "internalType": "address",
          "name": "sender",
          "type": "address"
        },
        {
          "internalType": "uint256",
          "name": "tokenId",
          "type": "uint256"
        },
        {
          "internalType": "address",
          "name": "owner",
          "type": "address"
        }
      ],
      "name": "ERC721IncorrectOwner",
      "type": "error"
    },
    {
      "inputs": [
        {
          "internalType": "address",
          "name": "operator",
          "type": "address"
        },
        {
          "internalType": "uint256",
          "name": "tokenId",
          "type": "uint256"
        }
      ],
      "name": "ERC721InsufficientApproval",
      "type": "error"
    },
    {
      "inputs": [
        {
          "internalType": "address",
          "name": "approver",
          "type": "address"
        }
      ],
      "name": "ERC721InvalidApprover",
      "type": "error"
    },
    {
      "inputs": [
        {
          "internalType": "address",
          "name": "operator",
          "type": "address"
        }
      ],
      "name": "ERC721InvalidOperator",
      "type": "error"
    },
    {
      "inputs": [
        {
          "internalType": "address",
          "name": "owner",
          "type": "address"
        }
      ],
      "name": "ERC721InvalidOwner",
      "type": "error"
    },
    {
      "inputs": [
        {
          "internalType": "address",
          "name": "receiver",
          "type": "address"
        }
      ],
      "name": "ERC721InvalidReceiver",
      "type": "error"
    },
    {
      "inputs": [
        {
          "internalType": "address",
          "name": "sender",
          "type": "address"
        }
      ],
      "name": "ERC721InvalidSender",
      "type": "error"
    },
    {
      "inputs": [
        {
          "internalType": "uint256",
          "name": "tokenId",
          "type": "uint256"
        }
      ],
      "name": "ERC721NonexistentToken",
      "type": "error"
    },
    {
      "anonymous": false,
      "inputs": [
        {
          "indexed": true,
          "internalType": "address",
          "name": "owner",
          "type": "address"
        },
        {
          "indexed": true,
          "internalType": "address",
          "name": "approved",
          "type": "address"
        },
        {
          "indexed": true,
          "internalType": "uint256",
          "name": "tokenId",
          "type": "uint256"
        }
      ],
      "name": "Approval",
      "type": "event"
    },
    {
      "anonymous": false,
      "inputs": [
        {
          "indexed": true,
          "internalType": "address",
          "name": "owner",
          "type": "address"
        },
        {
          "indexed": true,
          "internalType": "address",
          "name": "operator",
          "type": "address"
        },
        {
          "indexed": false,
          "internalType": "bool",
          "name": "approved",
          "type": "bool"
        }
      ],
      "name": "ApprovalForAll",
      "type": "event"
    },
    {
      "anonymous": false,
      "inputs": [
        {
          "indexed": false,
          "internalType": "uint256",
          "name": "_fromTokenId",
          "type": "uint256"
        },
        {
          "indexed": false,
          "internalType": "uint256",
          "name": "_toTokenId",
          "type": "uint256"
        }
      ],
      "name": "BatchMetadataUpdate",
      "type": "event"
    },
    {
      "anonymous": false,
      "inputs": [
        {
          "indexed": true,
          "internalType": "uint256",
          "name": "tokenId",
          "type": "uint256"
        },
        {
          "indexed": false,
          "internalType": "address",
          "name": "seller",
          "type": "address"
        },
        {
          "indexed": false,
          "internalType": "address",
          "name": "owner",
          "type": "address"
        },
        {
          "indexed": false,
          "internalType": "uint256",
          "name": "price",
          "type": "uint256"
        },
        {
          "indexed": false,
          "internalType": "bool",
          "name": "sold",
          "type": "bool"
        }
      ],
      "name": "MarketItemCreated",
      "type": "event"
    },
    {
      "anonymous": false,
      "inputs": [
        {
          "indexed": false,
          "internalType": "uint256",
          "name": "_tokenId",
          "type": "uint256"
        }
      ],
      "name": "MetadataUpdate",
      "type": "event"
    },
    {
      "anonymous": false,
      "inputs": [
        {
          "indexed": true,
          "internalType": "address",
          "name": "from",
          "type": "address"
        },
        {
          "indexed": true,
          "internalType": "address",
          "name": "to",
          "type": "address"
        },
        {
          "indexed": true,
          "internalType": "uint256",
          "name": "tokenId",
          "type": "uint256"
        }
      ],
      "name": "Transfer",
      "type": "event"
    },
    {
      "inputs": [
        {
          "internalType": "address",
          "name": "to",
          "type": "address"
        },
        {
          "internalType": "uint256",
          "name": "tokenId",
          "type": "uint256"
        }
      ],
      "name": "approve",
      "outputs": [],
      "stateMutability": "nonpayable",
      "type": "function"
    },
    {
      "inputs": [
        {
          "internalType": "address",
          "name": "owner",
          "type": "address"
        }
      ],
      "name": "balanceOf",
      "outputs": [
        {
          "internalType": "uint256",
          "name": "",
          "type": "uint256"
        }
      ],
      "stateMutability": "view",
      "type": "function"
    },
    {
      "inputs": [
        {
          "internalType": "uint256",
          "name": "tokenId",
          "type": "uint256"
        }
      ],
      "name": "createMarketSale",
      "outputs": [],
      "stateMutability": "payable",
      "type": "function"
    },
    {
      "inputs": [
        {
          "internalType": "string",
          "name": "tokenURI",
          "type": "string"
        },
        {
          "internalType": "uint256",
          "name": "price",
          "type": "uint256"
        }
      ],
      "name": "createToken",
      "outputs": [
        {
          "internalType": "uint256",
          "name": "",
          "type": "uint256"
        }
      ],
      "stateMutability": "payable",
      "type": "function"
    },
    {
      "inputs": [],
      "name": "fetchItemsListed",
      "outputs": [
        {
          "components": [
            {
              "internalType": "uint256",
              "name": "tokenId",
              "type": "uint256"
            },
            {
              "internalType": "address payable",
              "name": "seller",
              "type": "address"
            },
            {
              "internalType": "address payable",
              "name": "owner",
              "type": "address"
            },
            {
              "internalType": "uint256",
              "name": "price",
              "type": "uint256"
            },
            {
              "internalType": "bool",
              "name": "sold",
              "type": "bool"
            }
          ],
          "internalType": "struct NFTMarket.MarketItem[]",
          "name": "",
          "type": "tuple[]"
        }
      ],
      "stateMutability": "view",
      "type": "function"
    },
    {
      "inputs": [],
      "name": "fetchMarketItems",
      "outputs": [
        {
          "components": [
            {
              "internalType": "uint256",
              "name": "tokenId",
              "type": "uint256"
            },
            {
              "internalType": "address payable",
              "name": "seller",
              "type": "address"
            },
            {
              "internalType": "address payable",
              "name": "owner",
              "type": "address"
            },
            {
              "internalType": "uint256",
              "name": "price",
              "type": "uint256"
            },
            {
              "internalType": "bool",
              "name": "sold",
              "type": "bool"
            }
          ],
          "internalType": "struct NFTMarket.MarketItem[]",
          "name": "",
          "type": "tuple[]"
        }
      ],
      "stateMutability": "view",
      "type": "function"
    },
    {
      "inputs": [],
      "name": "fetchMyNFTs",
      "outputs": [
        {
          "components": [
            {
              "internalType": "uint256",
              "name": "tokenId",
              "type": "uint256"
            },
            {
              "internalType": "address payable",
              "name": "seller",
              "type": "address"
            },
            {
              "internalType": "address payable",
              "name": "owner",
              "type": "address"
            },
            {
              "internalType": "uint256",
              "name": "price",
              "type": "uint256"
            },
            {
              "internalType": "bool",
              "name": "sold",
              "type": "bool"
            }
          ],
          "internalType": "struct NFTMarket.MarketItem[]",
          "name": "",
          "type": "tuple[]"
        }
      ],
      "stateMutability": "view",
      "type": "function"
    },
    {
      "inputs": [
        {
          "internalType": "uint256",
          "name": "tokenId",
          "type": "uint256"
        }
      ],
      "name": "getApproved",
      "outputs": [
        {
          "internalType": "address",
          "name": "",
          "type": "address"
        }
      ],
      "stateMutability": "view",
      "type": "function"
    },
    {
      "inputs": [],
      "name": "getListPrice",
      "outputs": [
        {
          "internalType": "uint256",
          "name": "",
          "type": "uint256"
        }
      ],
      "stateMutability": "view",
      "type": "function"
    },
    {
      "inputs": [
        {
          "internalType": "address",
          "name": "owner",
          "type": "address"
        },
        {
          "internalType": "address",
          "name": "operator",
          "type": "address"
        }
      ],
      "name": "isApprovedForAll",
      "outputs": [
        {
          "internalType": "bool",
          "name": "",
          "type": "bool"
        }
      ],
      "stateMutability": "view",
      "type": "function"
    },
    {
      "inputs": [],
      "name": "name",
      "outputs": [
        {
          "internalType": "string",
          "name": "",
          "type": "string"
        }
      ],
      "stateMutability": "view",
      "type": "function"
    },
    {
      "inputs": [
        {
          "internalType": "uint256",
          "name": "tokenId",
          "type": "uint256"
        }
      ],
      "name": "ownerOf",
      "outputs": [
        {
          "internalType": "address",
          "name": "",
          "type": "address"
        }
      ],
      "stateMutability": "view",
      "type": "function"
    },
    {
      "inputs": [
        {
          "internalType": "uint256",
          "name": "tokenId",
          "type": "uint256"
        },
        {
          "internalType": "uint256",
          "name": "price",
          "type": "uint256"
        }
      ],
      "name": "resellToken",
      "outputs": [],
      "stateMutability": "payable",
      "type": "function"
    },
    {
      "inputs": [
        {
          "internalType": "address",
          "name": "from",
          "type": "address"
        },
        {
          "internalType": "address",
          "name": "to",
          "type": "address"
        },
        {
          "internalType": "uint256",
          "name": "tokenId",
          "type": "uint256"
        }
      ],
      "name": "safeTransferFrom",
      "outputs": [],
      "stateMutability": "nonpayable",
      "type": "function"
    },
    {
      "inputs": [
        {
          "internalType": "address",
          "name": "from",
          "type": "address"
        },
        {
          "internalType": "address",
          "name": "to",
          "type": "address"
        },
        {
          "internalType": "uint256",
          "name": "tokenId",
          "type": "uint256"
        },
        {
          "internalType": "bytes",
          "name": "data",
          "type": "bytes"
        }
      ],
      "name": "safeTransferFrom",
      "outputs": [],
      "stateMutability": "nonpayable",
      "type": "function"
    },
    {
      "inputs": [
        {
          "internalType": "address",
          "name": "operator",
          "type": "address"
        },
        {
          "internalType": "bool",
          "name": "approved",
          "type": "bool"
        }
      ],
      "name": "setApprovalForAll",
      "outputs": [],
      "stateMutability": "nonpayable",
      "type": "function"
    },
    {
      "inputs": [
        {
          "internalType": "bytes4",
          "name": "interfaceId",
          "type": "bytes4"
        }
      ],
      "name": "supportsInterface",
      "outputs": [
        {
          "internalType": "bool",
          "name": "",
          "type": "bool"
        }
      ],
      "stateMutability": "view",
      "type": "function"
    },
    {
      "inputs": [],
      "name": "symbol",
      "outputs": [
        {
          "internalType": "string",
          "name": "",
          "type": "string"
        }
      ],
      "stateMutability": "view",
      "type": "function"
    },
    {
      "inputs": [
        {
          "internalType": "uint256",
          "name": "tokenId",
          "type": "uint256"
        }
      ],
      "name": "tokenURI",
      "outputs": [
        {
          "internalType": "string",
          "name": "",
          "type": "string"
        }
      ],
      "stateMutability": "view",
      "type": "function"
    },
    {
      "inputs": [
        {
          "internalType": "address",
          "name": "from",
          "type": "address"
        },
        {
          "internalType": "address",
          "name": "to",
          "type": "address"
        },
        {
          "internalType": "uint256",
          "name": "tokenId",
          "type": "uint256"
        }
      ],
      "name": "transferFrom",
      "outputs": [],
      "stateMutability": "nonpayable",
      "type": "function"
    },
    {
      "inputs": [
        {
          "internalType": "uint256",
          "name": "_listingPrice",
          "type": "uint256"
        }
      ],
      "name": "updateListingPrice",
      "outputs": [],
      "stateMutability": "payable",
      "type": "function"
    }
  ],
  "bytecode": "0x60806040526658d15e176280006009553480156200001c57600080fd5b506040518060400160405280601081526020017f4d657461766572736520546f6b656e73000000000000000000000000000000008152506040518060400160405280600481526020017f4d4554540000000000000000000000000000000000000000000000000000000081525081600090816200009a919062000380565b508060019081620000ac919062000380565b50505033600a60006101000a81548173ffffffffffffffffffffffffffffffffffffffff021916908373ffffffffffffffffffffffffffffffffffffffff1602179055506000600781905550600060088190555062000467565b600081519050919050565b7f4e487b7100000000000000000000000000000000000000000000000000000000600052604160045260246000fd5b7f4e487b7100000000000000000000000000000000000000000000000000000000600052602260045260246000fd5b600060028204905060018216806200018857607f821691505b6020821081036200019e576200019d62000140565b5b50919050565b60008190508160005260206000209050919050565b60006020601f8301049050919050565b600082821b905092915050565b600060088302620002087fffffffffffffffffffffffffffffffffffffffffffffffffffffffffffffffff82620001c9565b620002148683620001c9565b95508019841693508086168417925050509392505050565b6000819050919050565b6000819050919050565b6000620002616200025b62000255846200022c565b62000236565b6200022c565b9050919050565b6000819050919050565b6200027d8362000240565b620002956200028c8262000268565b848454620001d6565b825550505050565b600090565b620002ac6200029d565b620002b981848462000272565b505050565b5b81811015620002e157620002d5600082620002a2565b600181019050620002bf565b5050565b601f8211156200033057620002fa81620001a4565b6200030584620001b9565b8101602085101562000315578190505b6200032d6200032485620001b9565b830182620002be565b50505b505050565b600082821c905092915050565b6000620003556000198460080262000335565b1980831691505092915050565b600062000370838362000342565b9150826002028217905092915050565b6200038b8262000106565b67ffffffffffffffff811115620003a757620003a662000111565b5b620003b382546200016f565b620003c0828285620002e5565b600060209050601f831160018114620003f85760008415620003e3578287015190505b620003ef858262000362565b8655506200045f565b601f1984166200040886620001a4565b60005b8281101562000432578489015182556001820191506020850194506020810190506200040b565b868310156200045257848901516200044e601f89168262000342565b8355505b6001600288020188555050505b505050505050565b613bdf80620004776000396000f3fe60806040526004361061012a5760003560e01c806368f1945f116100ab578063ae677aa31161006f578063ae677aa3146103f9578063b88d4fde14610415578063be9af5361461043e578063c87b56dd1461045a578063e219fc7514610497578063e985e9c5146104b35761012a565b806368f1945f1461030d57806370a082311461033857806372b3b6201461037557806395d89b41146103a5578063a22cb465146103d05761012a565b8063202e3740116100f2578063202e37401461022857806323b872dd1461025357806342842e0e1461027c57806345f8fa80146102a55780636352211e146102d05761012a565b806301ffc9a71461012f57806306fdde031461016c578063081812fc14610197578063095ea7b3146101d45780630f08efe0146101fd575b600080fd5b34801561013b57600080fd5b5061015660048036038101906101519190612aef565b6104f0565b6040516101639190612b37565b60405180910390f35b34801561017857600080fd5b50610181610551565b60405161018e9190612be2565b60405180910390f35b3480156101a357600080fd5b506101be60048036038101906101b99190612c3a565b6105e3565b6040516101cb9190612ca8565b60405180910390f35b3480156101e057600080fd5b506101fb60048036038101906101f69190612cef565b6105ff565b005b34801561020957600080fd5b50610212610615565b60405161021f9190612e85565b60405180910390f35b34801561023457600080fd5b5061023d610868565b60405161024a9190612e85565b60405180910390f35b34801561025f57600080fd5b5061027a60048036038101906102759190612ea7565b610b4d565b005b34801561028857600080fd5b506102a3600480360381019061029e9190612ea7565b610c4f565b005b3480156102b157600080fd5b506102ba610c6f565b6040516102c79190612e85565b60405180910390f35b3480156102dc57600080fd5b506102f760048036038101906102f29190612c3a565b610f54565b6040516103049190612ca8565b60405180910390f35b34801561031957600080fd5b50610322610f66565b60405161032f9190612f09565b60405180910390f35b34801561034457600080fd5b5061035f600480360381019061035a9190612f24565b610f70565b60405161036c9190612f09565b60405180910390f35b61038f600480360381019061038a9190613086565b61102a565b60405161039c9190612f09565b60405180910390f35b3480156103b157600080fd5b506103ba611075565b6040516103c79190612be2565b60405180910390f35b3480156103dc57600080fd5b506103f760048036038101906103f2919061310e565b611107565b005b610413600480360381019061040e9190612c3a565b61111d565b005b34801561042157600080fd5b5061043c600480360381019061043791906131ef565b6111b7565b005b61045860048036038101906104539190612c3a565b6111d4565b005b34801561046657600080fd5b50610481600480360381019061047c9190612c3a565b611422565b60405161048e9190612be2565b60405180910390f35b6104b160048036038101906104ac9190613272565b611535565b005b3480156104bf57600080fd5b506104da60048036038101906104d591906132b2565b61173a565b6040516104e79190612b37565b60405180910390f35b6000634906490660e01b7bffffffffffffffffffffffffffffffffffffffffffffffffffffffff1916827bffffffffffffffffffffffffffffffffffffffffffffffffffffffff1916148061054a5750610549826117ce565b5b9050919050565b60606000805461056090613321565b80601f016020809104026020016040519081016040528092919081815260200182805461058c90613321565b80156105d95780601f106105ae576101008083540402835291602001916105d9565b820191906000526020600020905b8154815290600101906020018083116105bc57829003601f168201915b5050505050905090565b60006105ee826118b0565b506105f882611938565b9050919050565b610611828261060c611975565b61197d565b5050565b60606000600754905060006008546007546106309190613381565b90506000808267ffffffffffffffff81111561064f5761064e612f5b565b5b60405190808252806020026020018201604052801561068857816020015b610675612a26565b81526020019060019003908161066d5790505b50905060005b8481101561085d573073ffffffffffffffffffffffffffffffffffffffff16600b60006001846106be91906133b5565b815260200190815260200160002060020160009054906101000a900473ffffffffffffffffffffffffffffffffffffffff1673ffffffffffffffffffffffffffffffffffffffff160361084a57600060018261071a91906133b5565b90506000600b60008381526020019081526020016000209050806040518060a0016040529081600082015481526020016001820160009054906101000a900473ffffffffffffffffffffffffffffffffffffffff1673ffffffffffffffffffffffffffffffffffffffff1673ffffffffffffffffffffffffffffffffffffffff1681526020016002820160009054906101000a900473ffffffffffffffffffffffffffffffffffffffff1673ffffffffffffffffffffffffffffffffffffffff1673ffffffffffffffffffffffffffffffffffffffff168152602001600382015481526020016004820160009054906101000a900460ff16151515158152505084868151811061082d5761082c6133e9565b5b602002602001018190525060018561084591906133b5565b945050505b808061085590613418565b91505061068e565b508094505050505090565b60606000600754905060008060005b83811015610917573373ffffffffffffffffffffffffffffffffffffffff16600b60006001846108a791906133b5565b815260200190815260200160002060020160009054906101000a900473ffffffffffffffffffffffffffffffffffffffff1673ffffffffffffffffffffffffffffffffffffffff16036109045760018361090191906133b5565b92505b808061090f90613418565b915050610877565b5060008267ffffffffffffffff81111561093457610933612f5b565b5b60405190808252806020026020018201604052801561096d57816020015b61095a612a26565b8152602001906001900390816109525790505b50905060005b84811015610b42573373ffffffffffffffffffffffffffffffffffffffff16600b60006001846109a391906133b5565b815260200190815260200160002060020160009054906101000a900473ffffffffffffffffffffffffffffffffffffffff1673ffffffffffffffffffffffffffffffffffffffff1603610b2f5760006001826109ff91906133b5565b90506000600b60008381526020019081526020016000209050806040518060a0016040529081600082015481526020016001820160009054906101000a900473ffffffffffffffffffffffffffffffffffffffff1673ffffffffffffffffffffffffffffffffffffffff1673ffffffffffffffffffffffffffffffffffffffff1681526020016002820160009054906101000a900473ffffffffffffffffffffffffffffffffffffffff1673ffffffffffffffffffffffffffffffffffffffff1673ffffffffffffffffffffffffffffffffffffffff168152602001600382015481526020016004820160009054906101000a900460ff161515151581525050848681518110610b1257610b116133e9565b5b6020026020010181905250600185610b2a91906133b5565b945050505b8080610b3a90613418565b915050610973565b508094505050505090565b600073ffffffffffffffffffffffffffffffffffffffff168273ffffffffffffffffffffffffffffffffffffffff1603610bbf5760006040517f64a0ae92000000000000000000000000000000000000000000000000000000008152600401610bb69190612ca8565b60405180910390fd5b6000610bd38383610bce611975565b61198f565b90508373ffffffffffffffffffffffffffffffffffffffff168173ffffffffffffffffffffffffffffffffffffffff1614610c49578382826040517f64283d7b000000000000000000000000000000000000000000000000000000008152600401610c4093929190613460565b60405180910390fd5b50505050565b610c6a838383604051806020016040528060008152506111b7565b505050565b60606000600754905060008060005b83811015610d1e573373ffffffffffffffffffffffffffffffffffffffff16600b6000600184610cae91906133b5565b815260200190815260200160002060010160009054906101000a900473ffffffffffffffffffffffffffffffffffffffff1673ffffffffffffffffffffffffffffffffffffffff1603610d0b57600183610d0891906133b5565b92505b8080610d1690613418565b915050610c7e565b5060008267ffffffffffffffff811115610d3b57610d3a612f5b565b5b604051908082528060200260200182016040528015610d7457816020015b610d61612a26565b815260200190600190039081610d595790505b50905060005b84811015610f49573373ffffffffffffffffffffffffffffffffffffffff16600b6000600184610daa91906133b5565b815260200190815260200160002060010160009054906101000a900473ffffffffffffffffffffffffffffffffffffffff1673ffffffffffffffffffffffffffffffffffffffff1603610f36576000600182610e0691906133b5565b90506000600b60008381526020019081526020016000209050806040518060a0016040529081600082015481526020016001820160009054906101000a900473ffffffffffffffffffffffffffffffffffffffff1673ffffffffffffffffffffffffffffffffffffffff1673ffffffffffffffffffffffffffffffffffffffff1681526020016002820160009054906101000a900473ffffffffffffffffffffffffffffffffffffffff1673ffffffffffffffffffffffffffffffffffffffff1673ffffffffffffffffffffffffffffffffffffffff168152602001600382015481526020016004820160009054906101000a900460ff161515151581525050848681518110610f1957610f186133e9565b5b6020026020010181905250600185610f3191906133b5565b945050505b8080610f4190613418565b915050610d7a565b508094505050505090565b6000610f5f826118b0565b9050919050565b6000600954905090565b60008073ffffffffffffffffffffffffffffffffffffffff168273ffffffffffffffffffffffffffffffffffffffff1603610fe35760006040517f89c62b64000000000000000000000000000000000000000000000000000000008152600401610fda9190612ca8565b60405180910390fd5b600360008373ffffffffffffffffffffffffffffffffffffffff1673ffffffffffffffffffffffffffffffffffffffff168152602001908152602001600020549050919050565b600060016007600082825461103f91906133b5565b92505081905550600060075490506110573382611ba9565b6110618185611ca2565b61106b8184611cfe565b8091505092915050565b60606001805461108490613321565b80601f01602080910402602001604051908101604052809291908181526020018280546110b090613321565b80156110fd5780601f106110d2576101008083540402835291602001916110fd565b820191906000526020600020905b8154815290600101906020018083116110e057829003601f168201915b5050505050905090565b611119611112611975565b8383611f01565b5050565b3373ffffffffffffffffffffffffffffffffffffffff16600a60009054906101000a900473ffffffffffffffffffffffffffffffffffffffff1673ffffffffffffffffffffffffffffffffffffffff16146111ad576040517f08c379a00000000000000000000000000000000000000000000000000000000081526004016111a490613509565b60405180910390fd5b8060098190555050565b6111c2848484610b4d565b6111ce84848484612070565b50505050565b6000600b60008381526020019081526020016000206003015490506000600b600084815260200190815260200160002060010160009054906101000a900473ffffffffffffffffffffffffffffffffffffffff16905081341461126c576040517f08c379a00000000000000000000000000000000000000000000000000000000081526004016112639061359b565b60405180910390fd5b33600b600085815260200190815260200160002060020160006101000a81548173ffffffffffffffffffffffffffffffffffffffff021916908373ffffffffffffffffffffffffffffffffffffffff1602179055506001600b600085815260200190815260200160002060040160006101000a81548160ff0219169083151502179055506000600b600085815260200190815260200160002060010160006101000a81548173ffffffffffffffffffffffffffffffffffffffff021916908373ffffffffffffffffffffffffffffffffffffffff16021790555060016008600082825461135991906133b5565b9250508190555061136b303385612227565b600a60009054906101000a900473ffffffffffffffffffffffffffffffffffffffff1673ffffffffffffffffffffffffffffffffffffffff166108fc6009549081150290604051600060405180830381858888f193505050501580156113d5573d6000803e3d6000fd5b508073ffffffffffffffffffffffffffffffffffffffff166108fc349081150290604051600060405180830381858888f1935050505015801561141c573d6000803e3d6000fd5b50505050565b606061142d826118b0565b50600060066000848152602001908152602001600020805461144e90613321565b80601f016020809104026020016040519081016040528092919081815260200182805461147a90613321565b80156114c75780601f1061149c576101008083540402835291602001916114c7565b820191906000526020600020905b8154815290600101906020018083116114aa57829003601f168201915b5050505050905060006114d8612394565b905060008151036114ed578192505050611530565b60008251111561152257808260405160200161150a9291906135f7565b60405160208183030381529060405292505050611530565b61152b846123ab565b925050505b919050565b3373ffffffffffffffffffffffffffffffffffffffff16600b600084815260200190815260200160002060020160009054906101000a900473ffffffffffffffffffffffffffffffffffffffff1673ffffffffffffffffffffffffffffffffffffffff16146115d9576040517f08c379a00000000000000000000000000000000000000000000000000000000081526004016115d09061368d565b60405180910390fd5b600954341461161d576040517f08c379a00000000000000000000000000000000000000000000000000000000081526004016116149061371f565b60405180910390fd5b6000600b600084815260200190815260200160002060040160006101000a81548160ff02191690831515021790555080600b60008481526020019081526020016000206003018190555033600b600084815260200190815260200160002060010160006101000a81548173ffffffffffffffffffffffffffffffffffffffff021916908373ffffffffffffffffffffffffffffffffffffffff16021790555030600b600084815260200190815260200160002060020160006101000a81548173ffffffffffffffffffffffffffffffffffffffff021916908373ffffffffffffffffffffffffffffffffffffffff1602179055506001600860008282546117249190613381565b92505081905550611736333084612227565b5050565b6000600560008473ffffffffffffffffffffffffffffffffffffffff1673ffffffffffffffffffffffffffffffffffffffff16815260200190815260200160002060008373ffffffffffffffffffffffffffffffffffffffff1673ffffffffffffffffffffffffffffffffffffffff16815260200190815260200160002060009054906101000a900460ff16905092915050565b60007f80ac58cd000000000000000000000000000000000000000000000000000000007bffffffffffffffffffffffffffffffffffffffffffffffffffffffff1916827bffffffffffffffffffffffffffffffffffffffffffffffffffffffff1916148061189957507f5b5e139f000000000000000000000000000000000000000000000000000000007bffffffffffffffffffffffffffffffffffffffffffffffffffffffff1916827bffffffffffffffffffffffffffffffffffffffffffffffffffffffff1916145b806118a957506118a882612414565b5b9050919050565b6000806118bc8361247e565b9050600073ffffffffffffffffffffffffffffffffffffffff168173ffffffffffffffffffffffffffffffffffffffff160361192f57826040517f7e2732890000000000000000000000000000000000000000000000000000000081526004016119269190612f09565b60405180910390fd5b80915050919050565b60006004600083815260200190815260200160002060009054906101000a900473ffffffffffffffffffffffffffffffffffffffff169050919050565b600033905090565b61198a83838360016124bb565b505050565b60008061199b8461247e565b9050600073ffffffffffffffffffffffffffffffffffffffff168373ffffffffffffffffffffffffffffffffffffffff16146119dd576119dc818486612680565b5b600073ffffffffffffffffffffffffffffffffffffffff168173ffffffffffffffffffffffffffffffffffffffff1614611a6e57611a1f6000856000806124bb565b6001600360008373ffffffffffffffffffffffffffffffffffffffff1673ffffffffffffffffffffffffffffffffffffffff168152602001908152602001600020600082825403925050819055505b600073ffffffffffffffffffffffffffffffffffffffff168573ffffffffffffffffffffffffffffffffffffffff1614611af1576001600360008773ffffffffffffffffffffffffffffffffffffffff1673ffffffffffffffffffffffffffffffffffffffff168152602001908152602001600020600082825401925050819055505b846002600086815260200190815260200160002060006101000a81548173ffffffffffffffffffffffffffffffffffffffff021916908373ffffffffffffffffffffffffffffffffffffffff160217905550838573ffffffffffffffffffffffffffffffffffffffff168273ffffffffffffffffffffffffffffffffffffffff167fddf252ad1be2c89b69c2b068fc378daa952ba7f163c4a11628f55a4df523b3ef60405160405180910390a4809150509392505050565b600073ffffffffffffffffffffffffffffffffffffffff168273ffffffffffffffffffffffffffffffffffffffff1603611c1b5760006040517f64a0ae92000000000000000000000000000000000000000000000000000000008152600401611c129190612ca8565b60405180910390fd5b6000611c298383600061198f565b9050600073ffffffffffffffffffffffffffffffffffffffff168173ffffffffffffffffffffffffffffffffffffffff1614611c9d5760006040517f73c6ac6e000000000000000000000000000000000000000000000000000000008152600401611c949190612ca8565b60405180910390fd5b505050565b80600660008481526020019081526020016000209081611cc291906138eb565b507ff8e1a15aba9398e019f0b49df1a4fde98ee17ae345cb5f6b5e2c27f5033e8ce782604051611cf29190612f09565b60405180910390a15050565b60008111611d41576040517f08c379a0000000000000000000000000000000000000000000000000000000008152600401611d3890613a09565b60405180910390fd5b6009543414611d85576040517f08c379a0000000000000000000000000000000000000000000000000000000008152600401611d7c9061371f565b60405180910390fd5b6040518060a001604052808381526020013373ffffffffffffffffffffffffffffffffffffffff1681526020013073ffffffffffffffffffffffffffffffffffffffff16815260200182815260200160001515815250600b60008481526020019081526020016000206000820151816000015560208201518160010160006101000a81548173ffffffffffffffffffffffffffffffffffffffff021916908373ffffffffffffffffffffffffffffffffffffffff16021790555060408201518160020160006101000a81548173ffffffffffffffffffffffffffffffffffffffff021916908373ffffffffffffffffffffffffffffffffffffffff1602179055506060820151816003015560808201518160040160006101000a81548160ff021916908315150217905550905050611ebe333084612227565b817fb640004f1d14576d0c209e240cad0410e0d8c0c33a09375861fbadae2588a98d3330846000604051611ef59493929190613a29565b60405180910390a25050565b600073ffffffffffffffffffffffffffffffffffffffff168273ffffffffffffffffffffffffffffffffffffffff1603611f7257816040517f5b08ba18000000000000000000000000000000000000000000000000000000008152600401611f699190612ca8565b60405180910390fd5b80600560008573ffffffffffffffffffffffffffffffffffffffff1673ffffffffffffffffffffffffffffffffffffffff16815260200190815260200160002060008473ffffffffffffffffffffffffffffffffffffffff1673ffffffffffffffffffffffffffffffffffffffff16815260200190815260200160002060006101000a81548160ff0219169083151502179055508173ffffffffffffffffffffffffffffffffffffffff168373ffffffffffffffffffffffffffffffffffffffff167f17307eab39ab6107e8899845ad3d59bd9653f200f220920489ca2b5937696c31836040516120639190612b37565b60405180910390a3505050565b60008373ffffffffffffffffffffffffffffffffffffffff163b1115612221578273ffffffffffffffffffffffffffffffffffffffff1663150b7a026120b4611975565b8685856040518563ffffffff1660e01b81526004016120d69493929190613ac3565b6020604051808303816000875af192505050801561211257506040513d601f19601f8201168201806040525081019061210f9190613b24565b60015b612196573d8060008114612142576040519150601f19603f3d011682016040523d82523d6000602084013e612147565b606091505b50600081510361218e57836040517f64a0ae920000000000000000000000000000000000000000000000000000000081526004016121859190612ca8565b60405180910390fd5b805181602001fd5b63150b7a0260e01b7bffffffffffffffffffffffffffffffffffffffffffffffffffffffff1916817bffffffffffffffffffffffffffffffffffffffffffffffffffffffff19161461221f57836040517f64a0ae920000000000000000000000000000000000000000000000000000000081526004016122169190612ca8565b60405180910390fd5b505b50505050565b600073ffffffffffffffffffffffffffffffffffffffff168273ffffffffffffffffffffffffffffffffffffffff16036122995760006040517f64a0ae920000000000000000000000000000000000000000000000000000000081526004016122909190612ca8565b60405180910390fd5b60006122a78383600061198f565b9050600073ffffffffffffffffffffffffffffffffffffffff168173ffffffffffffffffffffffffffffffffffffffff160361231a57816040517f7e2732890000000000000000000000000000000000000000000000000000000081526004016123119190612f09565b60405180910390fd5b8373ffffffffffffffffffffffffffffffffffffffff168173ffffffffffffffffffffffffffffffffffffffff161461238e578382826040517f64283d7b00000000000000000000000000000000000000000000000000000000815260040161238593929190613460565b60405180910390fd5b50505050565b606060405180602001604052806000815250905090565b60606123b6826118b0565b5060006123c1612394565b905060008151116123e1576040518060200160405280600081525061240c565b806123eb84612744565b6040516020016123fc9291906135f7565b6040516020818303038152906040525b915050919050565b60007f01ffc9a7000000000000000000000000000000000000000000000000000000007bffffffffffffffffffffffffffffffffffffffffffffffffffffffff1916827bffffffffffffffffffffffffffffffffffffffffffffffffffffffff1916149050919050565b60006002600083815260200190815260200160002060009054906101000a900473ffffffffffffffffffffffffffffffffffffffff169050919050565b80806124f45750600073ffffffffffffffffffffffffffffffffffffffff168273ffffffffffffffffffffffffffffffffffffffff1614155b15612628576000612504846118b0565b9050600073ffffffffffffffffffffffffffffffffffffffff168373ffffffffffffffffffffffffffffffffffffffff161415801561256f57508273ffffffffffffffffffffffffffffffffffffffff168173ffffffffffffffffffffffffffffffffffffffff1614155b80156125825750612580818461173a565b155b156125c457826040517fa9fbf51f0000000000000000000000000000000000000000000000000000000081526004016125bb9190612ca8565b60405180910390fd5b811561262657838573ffffffffffffffffffffffffffffffffffffffff168273ffffffffffffffffffffffffffffffffffffffff167f8c5be1e5ebec7d5bd14f71427d1e84f3dd0314c0f7b2291e5b200ac8c7c3b92560405160405180910390a45b505b836004600085815260200190815260200160002060006101000a81548173ffffffffffffffffffffffffffffffffffffffff021916908373ffffffffffffffffffffffffffffffffffffffff16021790555050505050565b61268b838383612812565b61273f57600073ffffffffffffffffffffffffffffffffffffffff168373ffffffffffffffffffffffffffffffffffffffff160361270057806040517f7e2732890000000000000000000000000000000000000000000000000000000081526004016126f79190612f09565b60405180910390fd5b81816040517f177e802f000000000000000000000000000000000000000000000000000000008152600401612736929190613b51565b60405180910390fd5b505050565b606060006001612753846128d3565b01905060008167ffffffffffffffff81111561277257612771612f5b565b5b6040519080825280601f01601f1916602001820160405280156127a45781602001600182028036833780820191505090505b509050600082602001820190505b600115612807578080600190039150507f3031323334353637383961626364656600000000000000000000000000000000600a86061a8153600a85816127fb576127fa613b7a565b5b049450600085036127b2575b819350505050919050565b60008073ffffffffffffffffffffffffffffffffffffffff168373ffffffffffffffffffffffffffffffffffffffff16141580156128ca57508273ffffffffffffffffffffffffffffffffffffffff168473ffffffffffffffffffffffffffffffffffffffff16148061288b575061288a848461173a565b5b806128c957508273ffffffffffffffffffffffffffffffffffffffff166128b183611938565b73ffffffffffffffffffffffffffffffffffffffff16145b5b90509392505050565b600080600090507a184f03e93ff9f4daa797ed6e38ed64bf6a1f0100000000000000008310612931577a184f03e93ff9f4daa797ed6e38ed64bf6a1f010000000000000000838161292757612926613b7a565b5b0492506040810190505b6d04ee2d6d415b85acef8100000000831061296e576d04ee2d6d415b85acef8100000000838161296457612963613b7a565b5b0492506020810190505b662386f26fc10000831061299d57662386f26fc10000838161299357612992613b7a565b5b0492506010810190505b6305f5e10083106129c6576305f5e10083816129bc576129bb613b7a565b5b0492506008810190505b61271083106129eb5761271083816129e1576129e0613b7a565b5b0492506004810190505b60648310612a0e5760648381612a0457612a03613b7a565b5b0492506002810190505b600a8310612a1d576001810190505b80915050919050565b6040518060a0016040528060008152602001600073ffffffffffffffffffffffffffffffffffffffff168152602001600073ffffffffffffffffffffffffffffffffffffffff168152602001600081526020016000151581525090565b6000604051905090565b600080fd5b600080fd5b60007fffffffff0000000000000000000000000000000000000000000000000000000082169050919050565b612acc81612a97565b8114612ad757600080fd5b50565b600081359050612ae981612ac3565b92915050565b600060208284031215612b0557612b04612a8d565b5b6000612b1384828501612ada565b91505092915050565b60008115159050919050565b612b3181612b1c565b82525050565b6000602082019050612b4c6000830184612b28565b92915050565b600081519050919050565b600082825260208201905092915050565b60005b83811015612b8c578082015181840152602081019050612b71565b60008484015250505050565b6000601f19601f8301169050919050565b6000612bb482612b52565b612bbe8185612b5d565b9350612bce818560208601612b6e565b612bd781612b98565b840191505092915050565b60006020820190508181036000830152612bfc8184612ba9565b905092915050565b6000819050919050565b612c1781612c04565b8114612c2257600080fd5b50565b600081359050612c3481612c0e565b92915050565b600060208284031215612c5057612c4f612a8d565b5b6000612c5e84828501612c25565b91505092915050565b600073ffffffffffffffffffffffffffffffffffffffff82169050919050565b6000612c9282612c67565b9050919050565b612ca281612c87565b82525050565b6000602082019050612cbd6000830184612c99565b92915050565b612ccc81612c87565b8114612cd757600080fd5b50565b600081359050612ce981612cc3565b92915050565b60008060408385031215612d0657612d05612a8d565b5b6000612d1485828601612cda565b9250506020612d2585828601612c25565b9150509250929050565b600081519050919050565b600082825260208201905092915050565b6000819050602082019050919050565b612d6481612c04565b82525050565b6000612d7582612c67565b9050919050565b612d8581612d6a565b82525050565b612d9481612b1c565b82525050565b60a082016000820151612db06000850182612d5b565b506020820151612dc36020850182612d7c565b506040820151612dd66040850182612d7c565b506060820151612de96060850182612d5b565b506080820151612dfc6080850182612d8b565b50505050565b6000612e0e8383612d9a565b60a08301905092915050565b6000602082019050919050565b6000612e3282612d2f565b612e3c8185612d3a565b9350612e4783612d4b565b8060005b83811015612e78578151612e5f8882612e02565b9750612e6a83612e1a565b925050600181019050612e4b565b5085935050505092915050565b60006020820190508181036000830152612e9f8184612e27565b905092915050565b600080600060608486031215612ec057612ebf612a8d565b5b6000612ece86828701612cda565b9350506020612edf86828701612cda565b9250506040612ef086828701612c25565b9150509250925092565b612f0381612c04565b82525050565b6000602082019050612f1e6000830184612efa565b92915050565b600060208284031215612f3a57612f39612a8d565b5b6000612f4884828501612cda565b91505092915050565b600080fd5b600080fd5b7f4e487b7100000000000000000000000000000000000000000000000000000000600052604160045260246000fd5b612f9382612b98565b810181811067ffffffffffffffff82111715612fb257612fb1612f5b565b5b80604052505050565b6000612fc5612a83565b9050612fd18282612f8a565b919050565b600067ffffffffffffffff821115612ff157612ff0612f5b565b5b612ffa82612b98565b9050602081019050919050565b82818337600083830152505050565b600061302961302484612fd6565b612fbb565b90508281526020810184848401111561304557613044612f56565b5b613050848285613007565b509392505050565b600082601f83011261306d5761306c612f51565b5b813561307d848260208601613016565b91505092915050565b6000806040838503121561309d5761309c612a8d565b5b600083013567ffffffffffffffff8111156130bb576130ba612a92565b5b6130c785828601613058565b92505060206130d885828601612c25565b9150509250929050565b6130eb81612b1c565b81146130f657600080fd5b50565b600081359050613108816130e2565b92915050565b6000806040838503121561312557613124612a8d565b5b600061313385828601612cda565b9250506020613144858286016130f9565b9150509250929050565b600067ffffffffffffffff82111561316957613168612f5b565b5b61317282612b98565b9050602081019050919050565b600061319261318d8461314e565b612fbb565b9050828152602081018484840111156131ae576131ad612f56565b5b6131b9848285613007565b509392505050565b600082601f8301126131d6576131d5612f51565b5b81356131e684826020860161317f565b91505092915050565b6000806000806080858703121561320957613208612a8d565b5b600061321787828801612cda565b945050602061322887828801612cda565b935050604061323987828801612c25565b925050606085013567ffffffffffffffff81111561325a57613259612a92565b5b613266878288016131c1565b91505092959194509250565b6000806040838503121561328957613288612a8d565b5b600061329785828601612c25565b92505060206132a885828601612c25565b9150509250929050565b600080604083850312156132c9576132c8612a8d565b5b60006132d785828601612cda565b92505060206132e885828601612cda565b9150509250929050565b7f4e487b7100000000000000000000000000000000000000000000000000000000600052602260045260246000fd5b6000600282049050600182168061333957607f821691505b60208210810361334c5761334b6132f2565b5b50919050565b7f4e487b7100000000000000000000000000000000000000000000000000000000600052601160045260246000fd5b600061338c82612c04565b915061339783612c04565b92508282039050818111156133af576133ae613352565b5b92915050565b60006133c082612c04565b91506133cb83612c04565b92508282019050808211156133e3576133e2613352565b5b92915050565b7f4e487b7100000000000000000000000000000000000000000000000000000000600052603260045260246000fd5b600061342382612c04565b91507fffffffffffffffffffffffffffffffffffffffffffffffffffffffffffffffff820361345557613454613352565b5b600182019050919050565b60006060820190506134756000830186612c99565b6134826020830185612efa565b61348f6040830184612c99565b949350505050565b7f4f6e6c79206d61726b6574706c616365206f776e65722063616e20757064617460008201527f65206c697374696e672070726963652e00000000000000000000000000000000602082015250565b60006134f3603083612b5d565b91506134fe82613497565b604082019050919050565b60006020820190508181036000830152613522816134e6565b9050919050565b7f506c65617365207375626d6974207468652061736b696e67207072696365206960008201527f6e206f7264657220746f20636f6d706c65746520746865207075726368617365602082015250565b6000613585604083612b5d565b915061359082613529565b604082019050919050565b600060208201905081810360008301526135b481613578565b9050919050565b600081905092915050565b60006135d182612b52565b6135db81856135bb565b93506135eb818560208601612b6e565b80840191505092915050565b600061360382856135c6565b915061360f82846135c6565b91508190509392505050565b7f4f6e6c79206974656d206f776e65722063616e20706572666f726d207468697360008201527f206f7065726174696f6e00000000000000000000000000000000000000000000602082015250565b6000613677602a83612b5d565b91506136828261361b565b604082019050919050565b600060208201905081810360008301526136a68161366a565b9050919050565b7f5072696365206d75737420626520657175616c20746f206c697374696e67207060008201527f7269636500000000000000000000000000000000000000000000000000000000602082015250565b6000613709602483612b5d565b9150613714826136ad565b604082019050919050565b60006020820190508181036000830152613738816136fc565b9050919050565b60008190508160005260206000209050919050565b60006020601f8301049050919050565b600082821b905092915050565b6000600883026137a17fffffffffffffffffffffffffffffffffffffffffffffffffffffffffffffffff82613764565b6137ab8683613764565b95508019841693508086168417925050509392505050565b6000819050919050565b60006137e86137e36137de84612c04565b6137c3565b612c04565b9050919050565b6000819050919050565b613802836137cd565b61381661380e826137ef565b848454613771565b825550505050565b600090565b61382b61381e565b6138368184846137f9565b505050565b5b8181101561385a5761384f600082613823565b60018101905061383c565b5050565b601f82111561389f576138708161373f565b61387984613754565b81016020851015613888578190505b61389c61389485613754565b83018261383b565b50505b505050565b600082821c905092915050565b60006138c2600019846008026138a4565b1980831691505092915050565b60006138db83836138b1565b9150826002028217905092915050565b6138f482612b52565b67ffffffffffffffff81111561390d5761390c612f5b565b5b6139178254613321565b61392282828561385e565b600060209050601f8311600181146139555760008415613943578287015190505b61394d85826138cf565b8655506139b5565b601f1984166139638661373f565b60005b8281101561398b57848901518255600182019150602085019450602081019050613966565b868310156139a857848901516139a4601f8916826138b1565b8355505b6001600288020188555050505b505050505050565b7f5072696365206d757374206265206174206c6561737420312077656900000000600082015250565b60006139f3601c83612b5d565b91506139fe826139bd565b602082019050919050565b60006020820190508181036000830152613a22816139e6565b9050919050565b6000608082019050613a3e6000830187612c99565b613a4b6020830186612c99565b613a586040830185612efa565b613a656060830184612b28565b95945050505050565b600081519050919050565b600082825260208201905092915050565b6000613a9582613a6e565b613a9f8185613a79565b9350613aaf818560208601612b6e565b613ab881612b98565b840191505092915050565b6000608082019050613ad86000830187612c99565b613ae56020830186612c99565b613af26040830185612efa565b8181036060830152613b048184613a8a565b905095945050505050565b600081519050613b1e81612ac3565b92915050565b600060208284031215613b3a57613b39612a8d565b5b6000613b4884828501613b0f565b91505092915050565b6000604082019050613b666000830185612c99565b613b736020830184612efa565b9392505050565b7f4e487b7100000000000000000000000000000000000000000000000000000000600052601260045260246000fdfea26469706673582212201d8764a0daded22d4b213f8271542780c9185d6ddae8a8e752f2cf3f31f52e5a64736f6c63430008140033",
  "linkReferences": {},
  "deployedLinkReferences": {}
}